{
  "_format": "hh-sol-artifact-1",
  "contractName": "CashbackManager",
  "sourceName": "contracts/CashbackManager.sol",
  "abi": [
    {
      "inputs": [
        {
          "internalType": "address",
          "name": "_shopCapTokenAddress",
          "type": "address"
        },
        {
          "internalType": "address",
          "name": "_partnerRegistryAddress",
          "type": "address"
        },
        {
          "internalType": "address",
          "name": "_initialReserveWallet",
          "type": "address"
        }
      ],
      "stateMutability": "nonpayable",
      "type": "constructor"
    },
    {
      "inputs": [],
      "name": "BURN_ADDRESS",
      "outputs": [
        {
          "internalType": "address",
          "name": "",
          "type": "address"
        }
      ],
      "stateMutability": "view",
      "type": "function"
    },
    {
      "inputs": [],
      "name": "burnShare",
      "outputs": [
        {
          "internalType": "uint256",
          "name": "",
          "type": "uint256"
        }
      ],
      "stateMutability": "view",
      "type": "function"
    },
    {
      "inputs": [],
      "name": "cashbackBasePercent",
      "outputs": [
        {
          "internalType": "uint256",
          "name": "",
          "type": "uint256"
        }
      ],
      "stateMutability": "view",
      "type": "function"
    },
    {
      "inputs": [
        {
          "internalType": "address",
          "name": "_user",
          "type": "address"
        },
        {
          "internalType": "uint256",
          "name": "_purchaseAmount",
          "type": "uint256"
        },
        {
          "internalType": "uint256",
          "name": "_partnerId",
          "type": "uint256"
        }
      ],
      "name": "issueCashbackAndDistribute",
      "outputs": [],
      "stateMutability": "nonpayable",
      "type": "function"
    },
    {
      "inputs": [],
      "name": "partnerRegistry",
      "outputs": [
        {
          "internalType": "contract PartnerRegistry",
          "name": "",
          "type": "address"
        }
      ],
      "stateMutability": "view",
      "type": "function"
    },
    {
      "inputs": [],
      "name": "referrerBonusPercent",
      "outputs": [
        {
          "internalType": "uint256",
          "name": "",
          "type": "uint256"
        }
      ],
      "stateMutability": "view",
      "type": "function"
    },
    {
      "inputs": [
        {
          "internalType": "address",
          "name": "_userAddress",
          "type": "address"
        },
        {
          "internalType": "uint256",
          "name": "_referrerPartnerId",
          "type": "uint256"
        }
      ],
      "name": "registerUser",
      "outputs": [],
      "stateMutability": "nonpayable",
      "type": "function"
    },
    {
      "inputs": [],
      "name": "reserveShare",
      "outputs": [
        {
          "internalType": "uint256",
          "name": "",
          "type": "uint256"
        }
      ],
      "stateMutability": "view",
      "type": "function"
    },
    {
      "inputs": [],
      "name": "reserveWallet",
      "outputs": [
        {
          "internalType": "address",
          "name": "",
          "type": "address"
        }
      ],
      "stateMutability": "view",
      "type": "function"
    },
    {
      "inputs": [],
      "name": "shopCapToken",
      "outputs": [
        {
          "internalType": "contract ShopCAPToken",
          "name": "",
          "type": "address"
        }
      ],
      "stateMutability": "view",
      "type": "function"
    },
    {
      "inputs": [
        {
          "internalType": "uint256",
          "name": "_base",
          "type": "uint256"
        },
        {
          "internalType": "uint256",
          "name": "_u",
          "type": "uint256"
        },
        {
          "internalType": "uint256",
          "name": "_r",
          "type": "uint256"
        },
        {
          "internalType": "uint256",
          "name": "_b",
          "type": "uint256"
        },
        {
          "internalType": "uint256",
          "name": "_ref",
          "type": "uint256"
        },
        {
          "internalType": "address",
          "name": "_res",
          "type": "address"
        }
      ],
      "name": "updateSettings",
      "outputs": [],
      "stateMutability": "nonpayable",
      "type": "function"
    },
    {
      "inputs": [],
      "name": "userCashbackShare",
      "outputs": [
        {
          "internalType": "uint256",
          "name": "",
          "type": "uint256"
        }
      ],
      "stateMutability": "view",
      "type": "function"
    },
    {
      "inputs": [
        {
          "internalType": "address",
          "name": "",
          "type": "address"
        }
      ],
      "name": "userReferrerPartnerId",
      "outputs": [
        {
          "internalType": "uint256",
          "name": "",
          "type": "uint256"
        }
      ],
      "stateMutability": "view",
      "type": "function"
    }
  ],
  "bytecode": "0x60c060405260466001556014600255600a60035560016004556005805534801561002857600080fd5b50604051610baf380380610baf83398101604081905261004791610091565b6001600160a01b0392831660805290821660a052600080546001600160a01b031916919092161790556100d4565b80516001600160a01b038116811461008c57600080fd5b919050565b6000806000606084860312156100a657600080fd5b6100af84610075565b92506100bd60208501610075565b91506100cb60408501610075565b90509250925092565b60805160a051610a8c6101236000396000818161010a015281816102e80152610683015260008181610185015281816103c901528181610458015281816104e401526105670152610a8c6000f3fe608060405234801561001057600080fd5b50600436106100cf5760003560e01c80639c8794051161008c578063e7cb3d6711610066578063e7cb3d67146101c3578063f6329000146101cc578063fa0b5e55146101d5578063fccc2813146101e857600080fd5b80639c87940514610180578063d2d0ded1146101a7578063d72b11bd146101b057600080fd5b806305bf0a54146100d45780632a6b69b9146100f057806338712e801461010557806339c5081514610144578063704c33051461016457806386d10e9f14610177575b600080fd5b6100dd60035481565b6040519081526020015b60405180910390f35b6101036100fe366004610778565b6101f1565b005b61012c7f000000000000000000000000000000000000000000000000000000000000000081565b6040516001600160a01b0390911681526020016100e7565b6100dd6101523660046107ad565b60066020526000908152604090205481565b6101036101723660046107d1565b6105d6565b6100dd60045481565b61012c7f000000000000000000000000000000000000000000000000000000000000000081565b6100dd60055481565b60005461012c906001600160a01b031681565b6100dd60025481565b6100dd60015481565b6101036101e3366004610826565b610664565b61012c61dead81565b6001600160a01b0383161580610205575081155b1561020f57505050565b60006064600454846102219190610868565b61022b9190610885565b90508060000361023b5750505050565b600060646001548361024d9190610868565b6102579190610885565b9050600060646002548461026b9190610868565b6102759190610885565b905060006064600354856102899190610868565b6102939190610885565b6001600160a01b03881660009081526006602052604090205460055491925090158015906102c057508015155b1561042c57604051630f1fe55b60e11b81526004810182905260009081906001600160a01b037f00000000000000000000000000000000000000000000000000000000000000001690631e3fcab690602401600060405180830381865afa15801561032f573d6000803e3d6000fd5b505050506040513d6000823e601f3d908101601f191682016040526103579190810190610972565b9450505050915081801561037357506001600160a01b03811615155b1561042957600060646005548861038a9190610868565b6103949190610885565b90506103a08188610a30565b6040516340c10f1960e01b81526001600160a01b038481166004830152602482018490529198507f0000000000000000000000000000000000000000000000000000000000000000909116906340c10f1990604401600060405180830381600087803b15801561040f57600080fd5b505af1158015610423573d6000803e3d6000fd5b50505050505b50505b83156104b5576040516340c10f1960e01b81526001600160a01b038981166004830152602482018690527f000000000000000000000000000000000000000000000000000000000000000016906340c10f1990604401600060405180830381600087803b15801561049c57600080fd5b505af11580156104b0573d6000803e3d6000fd5b505050505b8215610543576000546040516340c10f1960e01b81526001600160a01b039182166004820152602481018590527f0000000000000000000000000000000000000000000000000000000000000000909116906340c10f1990604401600060405180830381600087803b15801561052a57600080fd5b505af115801561053e573d6000803e3d6000fd5b505050505b81156105cc576040516340c10f1960e01b815261dead6004820152602481018390527f00000000000000000000000000000000000000000000000000000000000000006001600160a01b0316906340c10f1990604401600060405180830381600087803b1580156105b357600080fd5b505af11580156105c7573d6000803e3d6000fd5b505050505b5050505050505050565b826105e18587610a43565b6105eb9190610a43565b60641461062b5760405162461bcd60e51b815260206004820152600960248201526829bab69032b93937b960b91b60448201526064015b60405180910390fd5b600495909555600193909355600291909155600355600555600080546001600160a01b0319166001600160a01b03909216919091179055565b801561074457604051630f1fe55b60e11b8152600481018290526000907f00000000000000000000000000000000000000000000000000000000000000006001600160a01b031690631e3fcab690602401600060405180830381865afa1580156106d2573d6000803e3d6000fd5b505050506040513d6000823e601f3d908101601f191682016040526106fa9190810190610972565b505050509050806107425760405162461bcd60e51b8152602060048201526012602482015271506172746e6572206e6f742061637469766560701b6044820152606401610622565b505b6001600160a01b03909116600090815260066020526040902055565b6001600160a01b038116811461077557600080fd5b50565b60008060006060848603121561078d57600080fd5b833561079881610760565b95602085013595506040909401359392505050565b6000602082840312156107bf57600080fd5b81356107ca81610760565b9392505050565b60008060008060008060c087890312156107ea57600080fd5b863595506020870135945060408701359350606087013592506080870135915060a087013561081881610760565b809150509295509295509295565b6000806040838503121561083957600080fd5b823561084481610760565b946020939093013593505050565b634e487b7160e01b600052601160045260246000fd5b808202811582820484141761087f5761087f610852565b92915050565b6000826108a257634e487b7160e01b600052601260045260246000fd5b500490565b634e487b7160e01b600052604160045260246000fd5b600082601f8301126108ce57600080fd5b815167ffffffffffffffff8111156108e8576108e86108a7565b604051601f8201601f19908116603f0116810167ffffffffffffffff81118282101715610917576109176108a7565b60405281815283820160200185101561092f57600080fd5b60005b8281101561094e57602081860181015183830182015201610932565b506000918101602001919091529392505050565b805161096d81610760565b919050565b600080600080600060a0868803121561098a57600080fd5b8551801515811461099a57600080fd5b602087015190955067ffffffffffffffff8111156109b757600080fd5b6109c3888289016108bd565b945050604086015167ffffffffffffffff8111156109e057600080fd5b6109ec888289016108bd565b935050606086015167ffffffffffffffff811115610a0957600080fd5b610a15888289016108bd565b925050610a2460808701610962565b90509295509295909350565b8181038181111561087f5761087f610852565b8082018082111561087f5761087f61085256fea26469706673582212201abd6247abbb1ffa4d2196c5614cf8e218316a837499776071d96beb4b8ee80f64736f6c634300081c0033",
  "linkReferences": {},
  "deployedLinkReferences": {}
}