{
  "_format": "hh-sol-artifact-1",
  "contractName": "PartnerRegistry",
  "sourceName": "contracts/PartnerRegistry.sol",
  "abi": [
    {
      "inputs": [],
      "stateMutability": "nonpayable",
      "type": "constructor"
    },
    {
      "inputs": [
        {
          "internalType": "address",
          "name": "owner",
          "type": "address"
        }
      ],
      "name": "OwnableInvalidOwner",
      "type": "error"
    },
    {
      "inputs": [
        {
          "internalType": "address",
          "name": "account",
          "type": "address"
        }
      ],
      "name": "OwnableUnauthorizedAccount",
      "type": "error"
    },
    {
      "anonymous": false,
      "inputs": [
        {
          "indexed": true,
          "internalType": "address",
          "name": "previousOwner",
          "type": "address"
        },
        {
          "indexed": true,
          "internalType": "address",
          "name": "newOwner",
          "type": "address"
        }
      ],
      "name": "OwnershipTransferred",
      "type": "event"
    },
    {
      "anonymous": false,
      "inputs": [
        {
          "indexed": true,
          "internalType": "uint256",
          "name": "partnerId",
          "type": "uint256"
        },
        {
          "indexed": false,
          "internalType": "string",
          "name": "name",
          "type": "string"
        },
        {
          "indexed": false,
          "internalType": "address",
          "name": "partnerWallet",
          "type": "address"
        }
      ],
      "name": "PartnerAdded",
      "type": "event"
    },
    {
      "anonymous": false,
      "inputs": [
        {
          "indexed": true,
          "internalType": "uint256",
          "name": "partnerId",
          "type": "uint256"
        },
        {
          "indexed": false,
          "internalType": "bool",
          "name": "isActive",
          "type": "bool"
        }
      ],
      "name": "PartnerStatusToggled",
      "type": "event"
    },
    {
      "anonymous": false,
      "inputs": [
        {
          "indexed": true,
          "internalType": "uint256",
          "name": "partnerId",
          "type": "uint256"
        },
        {
          "indexed": false,
          "internalType": "string",
          "name": "name",
          "type": "string"
        },
        {
          "indexed": false,
          "internalType": "address",
          "name": "partnerWallet",
          "type": "address"
        }
      ],
      "name": "PartnerUpdated",
      "type": "event"
    },
    {
      "inputs": [
        {
          "internalType": "string",
          "name": "_name",
          "type": "string"
        },
        {
          "internalType": "string",
          "name": "_description",
          "type": "string"
        },
        {
          "internalType": "string",
          "name": "_referralLink",
          "type": "string"
        },
        {
          "internalType": "address",
          "name": "_partnerWallet",
          "type": "address"
        }
      ],
      "name": "addPartner",
      "outputs": [
        {
          "internalType": "uint256",
          "name": "",
          "type": "uint256"
        }
      ],
      "stateMutability": "nonpayable",
      "type": "function"
    },
    {
      "inputs": [
        {
          "internalType": "uint256",
          "name": "_partnerId",
          "type": "uint256"
        }
      ],
      "name": "getPartnerDetails",
      "outputs": [
        {
          "internalType": "bool",
          "name": "isActive",
          "type": "bool"
        },
        {
          "internalType": "string",
          "name": "name",
          "type": "string"
        },
        {
          "internalType": "string",
          "name": "description",
          "type": "string"
        },
        {
          "internalType": "string",
          "name": "referralLink",
          "type": "string"
        },
        {
          "internalType": "address",
          "name": "partnerWallet",
          "type": "address"
        }
      ],
      "stateMutability": "view",
      "type": "function"
    },
    {
      "inputs": [
        {
          "internalType": "uint256",
          "name": "_partnerId",
          "type": "uint256"
        }
      ],
      "name": "getPartnerWallet",
      "outputs": [
        {
          "internalType": "address",
          "name": "",
          "type": "address"
        }
      ],
      "stateMutability": "view",
      "type": "function"
    },
    {
      "inputs": [],
      "name": "owner",
      "outputs": [
        {
          "internalType": "address",
          "name": "",
          "type": "address"
        }
      ],
      "stateMutability": "view",
      "type": "function"
    },
    {
      "inputs": [
        {
          "internalType": "uint256",
          "name": "",
          "type": "uint256"
        }
      ],
      "name": "partners",
      "outputs": [
        {
          "internalType": "uint256",
          "name": "id",
          "type": "uint256"
        },
        {
          "internalType": "bool",
          "name": "isActive",
          "type": "bool"
        },
        {
          "internalType": "string",
          "name": "name",
          "type": "string"
        },
        {
          "internalType": "string",
          "name": "description",
          "type": "string"
        },
        {
          "internalType": "string",
          "name": "referralLink",
          "type": "string"
        },
        {
          "internalType": "address",
          "name": "partnerWallet",
          "type": "address"
        }
      ],
      "stateMutability": "view",
      "type": "function"
    },
    {
      "inputs": [],
      "name": "renounceOwnership",
      "outputs": [],
      "stateMutability": "nonpayable",
      "type": "function"
    },
    {
      "inputs": [
        {
          "internalType": "uint256",
          "name": "_partnerId",
          "type": "uint256"
        },
        {
          "internalType": "bool",
          "name": "_isActive",
          "type": "bool"
        }
      ],
      "name": "togglePartnerStatus",
      "outputs": [],
      "stateMutability": "nonpayable",
      "type": "function"
    },
    {
      "inputs": [
        {
          "internalType": "address",
          "name": "newOwner",
          "type": "address"
        }
      ],
      "name": "transferOwnership",
      "outputs": [],
      "stateMutability": "nonpayable",
      "type": "function"
    },
    {
      "inputs": [
        {
          "internalType": "uint256",
          "name": "_partnerId",
          "type": "uint256"
        },
        {
          "internalType": "string",
          "name": "_name",
          "type": "string"
        },
        {
          "internalType": "string",
          "name": "_description",
          "type": "string"
        },
        {
          "internalType": "string",
          "name": "_referralLink",
          "type": "string"
        },
        {
          "internalType": "address",
          "name": "_partnerWallet",
          "type": "address"
        }
      ],
      "name": "updatePartner",
      "outputs": [],
      "stateMutability": "nonpayable",
      "type": "function"
    }
  ],
  "bytecode": "0x6080604052348015600f57600080fd5b503380603557604051631e4fbdf760e01b81526000600482015260240160405180910390fd5b603c816046565b5060006002556096565b600080546001600160a01b038381166001600160a01b0319831681178455604051919092169283917f8be0079c531659141344cd1fd0a4f28419497f9722a3daafe3b4186f6b6457e09190a35050565b610f96806100a56000396000f3fe608060405234801561001057600080fd5b50600436106100935760003560e01c8063715018a611610066578063715018a6146101225780637ca5b5ae1461012a5780638da5cb5b1461013d578063c3b49d041461014e578063f2fde38b1461017357600080fd5b80630df4490014610098578063158008b1146100be5780631e3fcab6146100e957806332e9ff2c1461010d575b600080fd5b6100ab6100a6366004610a8d565b610186565b6040519081526020015b60405180910390f35b6100d16100cc366004610b32565b610333565b6040516001600160a01b0390911681526020016100b5565b6100fc6100f7366004610b32565b610381565b6040516100b5959493929190610b91565b61012061011b366004610bed565b6105aa565b005b610120610632565b610120610138366004610c22565b610646565b6000546001600160a01b03166100d1565b61016161015c366004610b32565b610736565b6040516100b596959493929190610cd1565b610120610181366004610d34565b610911565b60006001600160a01b0382166101b75760405162461bcd60e51b81526004016101ae90610d56565b60405180910390fd5b600280549060006101c783610d9b565b9091555050600254806102265760405162461bcd60e51b815260206004820152602160248201527f506172746e6572204944206d7573742062652067726561746572207468616e206044820152600360fc1b60648201526084016101ae565b6040805160c081018252828152600160208083018281528385018b8152606085018b9052608085018a90526001600160a01b03891660a086015260008781529284905294909120835181559051918101805460ff1916921515929092179091559151909190600282019061029a9082610e4b565b50606082015160038201906102af9082610e4b565b50608082015160048201906102c49082610e4b565b5060a09190910151600590910180546001600160a01b0319166001600160a01b0390921691909117905560405181907fcfd474f9d1e6c30f759f1638953953f60f7c2aa911e6d87504afb8bef7220230906103229089908790610f0a565b60405180910390a295945050505050565b6000808211801561034657506002548211155b6103625760405162461bcd60e51b81526004016101ae90610f34565b506000908152600160205260409020600501546001600160a01b031690565b600060608060606000808611801561039b57506002548611155b6103b75760405162461bcd60e51b81526004016101ae90610f34565b600086815260016020819052604090912090810154600582015460028301805460ff909316929091600385019160048601916001600160a01b03169084906103fe90610dc2565b80601f016020809104026020016040519081016040528092919081815260200182805461042a90610dc2565b80156104775780601f1061044c57610100808354040283529160200191610477565b820191906000526020600020905b81548152906001019060200180831161045a57829003601f168201915b5050505050935082805461048a90610dc2565b80601f01602080910402602001604051908101604052809291908181526020018280546104b690610dc2565b80156105035780601f106104d857610100808354040283529160200191610503565b820191906000526020600020905b8154815290600101906020018083116104e657829003601f168201915b5050505050925081805461051690610dc2565b80601f016020809104026020016040519081016040528092919081815260200182805461054290610dc2565b801561058f5780601f106105645761010080835404028352916020019161058f565b820191906000526020600020905b81548152906001019060200180831161057257829003601f168201915b50505050509150955095509550955095505091939590929450565b6000821180156105bc57506002548211155b6105d85760405162461bcd60e51b81526004016101ae90610f34565b600082815260016020818152604092839020909101805460ff1916841515908117909155915191825283917fc5bd32c65f8e2d79c9aae8907e7e1860197e649e3e6d24c1d1d183019454dcc2910160405180910390a25050565b61063a61094f565b610644600061097c565b565b6001600160a01b03811661066c5760405162461bcd60e51b81526004016101ae90610d56565b60008511801561067e57506002548511155b61069a5760405162461bcd60e51b81526004016101ae90610f34565b6000858152600160205260409020600281016106b68682610e4b565b50600381016106c58582610e4b565b50600481016106d48482610e4b565b506005810180546001600160a01b0319166001600160a01b03841617905560405186907ffec3323e4e536e670d1f80203354387ccf44bba2011edd507863b66f4620c4e6906107269088908690610f0a565b60405180910390a2505050505050565b600160208190526000918252604090912080549181015460028201805460ff909216929161076390610dc2565b80601f016020809104026020016040519081016040528092919081815260200182805461078f90610dc2565b80156107dc5780601f106107b1576101008083540402835291602001916107dc565b820191906000526020600020905b8154815290600101906020018083116107bf57829003601f168201915b5050505050908060030180546107f190610dc2565b80601f016020809104026020016040519081016040528092919081815260200182805461081d90610dc2565b801561086a5780601f1061083f5761010080835404028352916020019161086a565b820191906000526020600020905b81548152906001019060200180831161084d57829003601f168201915b50505050509080600401805461087f90610dc2565b80601f01602080910402602001604051908101604052809291908181526020018280546108ab90610dc2565b80156108f85780601f106108cd576101008083540402835291602001916108f8565b820191906000526020600020905b8154815290600101906020018083116108db57829003601f168201915b505050600590930154919250506001600160a01b031686565b61091961094f565b6001600160a01b03811661094357604051631e4fbdf760e01b8152600060048201526024016101ae565b61094c8161097c565b50565b6000546001600160a01b031633146106445760405163118cdaa760e01b81523360048201526024016101ae565b600080546001600160a01b038381166001600160a01b0319831681178455604051919092169283917f8be0079c531659141344cd1fd0a4f28419497f9722a3daafe3b4186f6b6457e09190a35050565b634e487b7160e01b600052604160045260246000fd5b600082601f8301126109f357600080fd5b813567ffffffffffffffff811115610a0d57610a0d6109cc565b604051601f8201601f19908116603f0116810167ffffffffffffffff81118282101715610a3c57610a3c6109cc565b604052818152838201602001851015610a5457600080fd5b816020850160208301376000918101602001919091529392505050565b80356001600160a01b0381168114610a8857600080fd5b919050565b60008060008060808587031215610aa357600080fd5b843567ffffffffffffffff811115610aba57600080fd5b610ac6878288016109e2565b945050602085013567ffffffffffffffff811115610ae357600080fd5b610aef878288016109e2565b935050604085013567ffffffffffffffff811115610b0c57600080fd5b610b18878288016109e2565b925050610b2760608601610a71565b905092959194509250565b600060208284031215610b4457600080fd5b5035919050565b6000815180845260005b81811015610b7157602081850181015186830182015201610b55565b506000602082860101526020601f19601f83011685010191505092915050565b851515815260a060208201526000610bac60a0830187610b4b565b8281036040840152610bbe8187610b4b565b90508281036060840152610bd28186610b4b565b91505060018060a01b03831660808301529695505050505050565b60008060408385031215610c0057600080fd5b8235915060208301358015158114610c1757600080fd5b809150509250929050565b600080600080600060a08688031215610c3a57600080fd5b85359450602086013567ffffffffffffffff811115610c5857600080fd5b610c64888289016109e2565b945050604086013567ffffffffffffffff811115610c8157600080fd5b610c8d888289016109e2565b935050606086013567ffffffffffffffff811115610caa57600080fd5b610cb6888289016109e2565b925050610cc560808701610a71565b90509295509295909350565b868152851515602082015260c060408201526000610cf260c0830187610b4b565b8281036060840152610d048187610b4b565b90508281036080840152610d188186610b4b565b91505060018060a01b03831660a0830152979650505050505050565b600060208284031215610d4657600080fd5b610d4f82610a71565b9392505050565b60208082526025908201527f506172746e65722077616c6c65742063616e6e6f74206265207a65726f206164604082015264647265737360d81b606082015260800190565b600060018201610dbb57634e487b7160e01b600052601160045260246000fd5b5060010190565b600181811c90821680610dd657607f821691505b602082108103610df657634e487b7160e01b600052602260045260246000fd5b50919050565b601f821115610e4657806000526020600020601f840160051c81016020851015610e235750805b601f840160051c820191505b81811015610e435760008155600101610e2f565b50505b505050565b815167ffffffffffffffff811115610e6557610e656109cc565b610e7981610e738454610dc2565b84610dfc565b6020601f821160018114610ead5760008315610e955750848201515b600019600385901b1c1916600184901b178455610e43565b600084815260208120601f198516915b82811015610edd5787850151825560209485019460019092019101610ebd565b5084821015610efb5786840151600019600387901b60f8161c191681555b50505050600190811b01905550565b604081526000610f1d6040830185610b4b565b905060018060a01b03831660208301529392505050565b602080825260129082015271125b9d985b1a59081c185c9d1b995c88125160721b60408201526060019056fea2646970667358221220e4b05138478a396b9fe7f3494b14f7e0bf4f799129ada304051945cd05466da364736f6c634300081c0033",
  "linkReferences": {},
  "deployedLinkReferences": {}
}