{
  "_format": "hh-sol-artifact-1",
  "contractName": "ShopCAPToken",
  "sourceName": "contracts/ShopCAPToken.sol",
  "abi": [
    {
      "inputs": [],
      "stateMutability": "nonpayable",
      "type": "constructor"
    },
    {
      "inputs": [
        {
          "internalType": "address",
          "name": "spender",
          "type": "address"
        },
        {
          "internalType": "uint256",
          "name": "allowance",
          "type": "uint256"
        },
        {
          "internalType": "uint256",
          "name": "needed",
          "type": "uint256"
        }
      ],
      "name": "ERC20InsufficientAllowance",
      "type": "error"
    },
    {
      "inputs": [
        {
          "internalType": "address",
          "name": "sender",
          "type": "address"
        },
        {
          "internalType": "uint256",
          "name": "balance",
          "type": "uint256"
        },
        {
          "internalType": "uint256",
          "name": "needed",
          "type": "uint256"
        }
      ],
      "name": "ERC20InsufficientBalance",
      "type": "error"
    },
    {
      "inputs": [
        {
          "internalType": "address",
          "name": "approver",
          "type": "address"
        }
      ],
      "name": "ERC20InvalidApprover",
      "type": "error"
    },
    {
      "inputs": [
        {
          "internalType": "address",
          "name": "receiver",
          "type": "address"
        }
      ],
      "name": "ERC20InvalidReceiver",
      "type": "error"
    },
    {
      "inputs": [
        {
          "internalType": "address",
          "name": "sender",
          "type": "address"
        }
      ],
      "name": "ERC20InvalidSender",
      "type": "error"
    },
    {
      "inputs": [
        {
          "internalType": "address",
          "name": "spender",
          "type": "address"
        }
      ],
      "name": "ERC20InvalidSpender",
      "type": "error"
    },
    {
      "inputs": [
        {
          "internalType": "address",
          "name": "owner",
          "type": "address"
        }
      ],
      "name": "OwnableInvalidOwner",
      "type": "error"
    },
    {
      "inputs": [
        {
          "internalType": "address",
          "name": "account",
          "type": "address"
        }
      ],
      "name": "OwnableUnauthorizedAccount",
      "type": "error"
    },
    {
      "anonymous": false,
      "inputs": [
        {
          "indexed": true,
          "internalType": "address",
          "name": "owner",
          "type": "address"
        },
        {
          "indexed": true,
          "internalType": "address",
          "name": "spender",
          "type": "address"
        },
        {
          "indexed": false,
          "internalType": "uint256",
          "name": "value",
          "type": "uint256"
        }
      ],
      "name": "Approval",
      "type": "event"
    },
    {
      "anonymous": false,
      "inputs": [
        {
          "indexed": true,
          "internalType": "address",
          "name": "previousOwner",
          "type": "address"
        },
        {
          "indexed": true,
          "internalType": "address",
          "name": "newOwner",
          "type": "address"
        }
      ],
      "name": "OwnershipTransferred",
      "type": "event"
    },
    {
      "anonymous": false,
      "inputs": [
        {
          "indexed": true,
          "internalType": "address",
          "name": "from",
          "type": "address"
        },
        {
          "indexed": true,
          "internalType": "address",
          "name": "to",
          "type": "address"
        },
        {
          "indexed": false,
          "internalType": "uint256",
          "name": "value",
          "type": "uint256"
        }
      ],
      "name": "Transfer",
      "type": "event"
    },
    {
      "inputs": [
        {
          "internalType": "address",
          "name": "owner",
          "type": "address"
        },
        {
          "internalType": "address",
          "name": "spender",
          "type": "address"
        }
      ],
      "name": "allowance",
      "outputs": [
        {
          "internalType": "uint256",
          "name": "",
          "type": "uint256"
        }
      ],
      "stateMutability": "view",
      "type": "function"
    },
    {
      "inputs": [
        {
          "internalType": "address",
          "name": "spender",
          "type": "address"
        },
        {
          "internalType": "uint256",
          "name": "value",
          "type": "uint256"
        }
      ],
      "name": "approve",
      "outputs": [
        {
          "internalType": "bool",
          "name": "",
          "type": "bool"
        }
      ],
      "stateMutability": "nonpayable",
      "type": "function"
    },
    {
      "inputs": [
        {
          "internalType": "address",
          "name": "account",
          "type": "address"
        }
      ],
      "name": "balanceOf",
      "outputs": [
        {
          "internalType": "uint256",
          "name": "",
          "type": "uint256"
        }
      ],
      "stateMutability": "view",
      "type": "function"
    },
    {
      "inputs": [],
      "name": "decimals",
      "outputs": [
        {
          "internalType": "uint8",
          "name": "",
          "type": "uint8"
        }
      ],
      "stateMutability": "view",
      "type": "function"
    },
    {
      "inputs": [
        {
          "internalType": "address",
          "name": "to",
          "type": "address"
        },
        {
          "internalType": "uint256",
          "name": "amount",
          "type": "uint256"
        }
      ],
      "name": "mint",
      "outputs": [],
      "stateMutability": "nonpayable",
      "type": "function"
    },
    {
      "inputs": [
        {
          "internalType": "address",
          "name": "",
          "type": "address"
        }
      ],
      "name": "minters",
      "outputs": [
        {
          "internalType": "bool",
          "name": "",
          "type": "bool"
        }
      ],
      "stateMutability": "view",
      "type": "function"
    },
    {
      "inputs": [],
      "name": "name",
      "outputs": [
        {
          "internalType": "string",
          "name": "",
          "type": "string"
        }
      ],
      "stateMutability": "view",
      "type": "function"
    },
    {
      "inputs": [],
      "name": "owner",
      "outputs": [
        {
          "internalType": "address",
          "name": "",
          "type": "address"
        }
      ],
      "stateMutability": "view",
      "type": "function"
    },
    {
      "inputs": [],
      "name": "renounceOwnership",
      "outputs": [],
      "stateMutability": "nonpayable",
      "type": "function"
    },
    {
      "inputs": [
        {
          "internalType": "address",
          "name": "_minter",
          "type": "address"
        },
        {
          "internalType": "bool",
          "name": "_status",
          "type": "bool"
        }
      ],
      "name": "setMinter",
      "outputs": [],
      "stateMutability": "nonpayable",
      "type": "function"
    },
    {
      "inputs": [],
      "name": "symbol",
      "outputs": [
        {
          "internalType": "string",
          "name": "",
          "type": "string"
        }
      ],
      "stateMutability": "view",
      "type": "function"
    },
    {
      "inputs": [],
      "name": "totalSupply",
      "outputs": [
        {
          "internalType": "uint256",
          "name": "",
          "type": "uint256"
        }
      ],
      "stateMutability": "view",
      "type": "function"
    },
    {
      "inputs": [
        {
          "internalType": "address",
          "name": "to",
          "type": "address"
        },
        {
          "internalType": "uint256",
          "name": "value",
          "type": "uint256"
        }
      ],
      "name": "transfer",
      "outputs": [
        {
          "internalType": "bool",
          "name": "",
          "type": "bool"
        }
      ],
      "stateMutability": "nonpayable",
      "type": "function"
    },
    {
      "inputs": [
        {
          "internalType": "address",
          "name": "from",
          "type": "address"
        },
        {
          "internalType": "address",
          "name": "to",
          "type": "address"
        },
        {
          "internalType": "uint256",
          "name": "value",
          "type": "uint256"
        }
      ],
      "name": "transferFrom",
      "outputs": [
        {
          "internalType": "bool",
          "name": "",
          "type": "bool"
        }
      ],
      "stateMutability": "nonpayable",
      "type": "function"
    },
    {
      "inputs": [
        {
          "internalType": "address",
          "name": "newOwner",
          "type": "address"
        }
      ],
      "name": "transferOwnership",
      "outputs": [],
      "stateMutability": "nonpayable",
      "type": "function"
    }
  ],
  "bytecode": "0x608060405234801561001057600080fd5b503360405180604001604052806007815260200166053686f704341560cc1b815250604051806040016040528060048152602001630534341560e41b815250816003908161005e9190610323565b50600461006b8282610323565b5050506001600160a01b03811661009d57604051631e4fbdf760e01b8152600060048201526024015b60405180910390fd5b6100a6816100ce565b506100c9336100b76012600a6104e0565b6100c490620f42406104f6565b610120565b610520565b600580546001600160a01b038381166001600160a01b0319831681179093556040519116919082907f8be0079c531659141344cd1fd0a4f28419497f9722a3daafe3b4186f6b6457e090600090a35050565b6001600160a01b03821661014a5760405163ec442f0560e01b815260006004820152602401610094565b6101566000838361015a565b5050565b6001600160a01b03831661018557806002600082825461017a919061050d565b909155506101f79050565b6001600160a01b038316600090815260208190526040902054818110156101d85760405163391434e360e21b81526001600160a01b03851660048201526024810182905260448101839052606401610094565b6001600160a01b03841660009081526020819052604090209082900390555b6001600160a01b03821661021357600280548290039055610232565b6001600160a01b03821660009081526020819052604090208054820190555b816001600160a01b0316836001600160a01b03167fddf252ad1be2c89b69c2b068fc378daa952ba7f163c4a11628f55a4df523b3ef8360405161027791815260200190565b60405180910390a3505050565b634e487b7160e01b600052604160045260246000fd5b600181811c908216806102ae57607f821691505b6020821081036102ce57634e487b7160e01b600052602260045260246000fd5b50919050565b601f82111561031e57806000526020600020601f840160051c810160208510156102fb5750805b601f840160051c820191505b8181101561031b5760008155600101610307565b50505b505050565b81516001600160401b0381111561033c5761033c610284565b6103508161034a845461029a565b846102d4565b6020601f821160018114610384576000831561036c5750848201515b600019600385901b1c1916600184901b17845561031b565b600084815260208120601f198516915b828110156103b45787850151825560209485019460019092019101610394565b50848210156103d25786840151600019600387901b60f8161c191681555b50505050600190811b01905550565b634e487b7160e01b600052601160045260246000fd5b6001815b600184111561043257808504811115610416576104166103e1565b600184161561042457908102905b60019390931c9280026103fb565b935093915050565b600082610449575060016104da565b81610456575060006104da565b816001811461046c576002811461047657610492565b60019150506104da565b60ff841115610487576104876103e1565b50506001821b6104da565b5060208310610133831016604e8410600b84101617156104b5575081810a6104da565b6104c260001984846103f7565b80600019048211156104d6576104d66103e1565b0290505b92915050565b60006104ef60ff84168361043a565b9392505050565b80820281158282048414176104da576104da6103e1565b808201808211156104da576104da6103e1565b610a058061052f6000396000f3fe608060405234801561001057600080fd5b50600436106100f55760003560e01c8063715018a611610097578063cf456ae711610066578063cf456ae7146101eb578063dd62ed3e146101fe578063f2fde38b14610237578063f46eccc41461024a57600080fd5b8063715018a6146101ad5780638da5cb5b146101b557806395d89b41146101d0578063a9059cbb146101d857600080fd5b806323b872dd116100d357806323b872dd1461014d578063313ce5671461016057806340c10f191461016f57806370a082311461018457600080fd5b806306fdde03146100fa578063095ea7b31461011857806318160ddd1461013b575b600080fd5b61010261026d565b60405161010f9190610812565b60405180910390f35b61012b61012636600461087c565b6102ff565b604051901515815260200161010f565b6002545b60405190815260200161010f565b61012b61015b3660046108a6565b610319565b6040516012815260200161010f565b61018261017d36600461087c565b61033d565b005b61013f6101923660046108e3565b6001600160a01b031660009081526020819052604090205490565b6101826103cc565b6005546040516001600160a01b03909116815260200161010f565b6101026103e0565b61012b6101e636600461087c565b6103ef565b6101826101f9366004610905565b6103fd565b61013f61020c366004610941565b6001600160a01b03918216600090815260016020908152604080832093909416825291909152205490565b6101826102453660046108e3565b610430565b61012b6102583660046108e3565b60066020526000908152604090205460ff1681565b60606003805461027c90610974565b80601f01602080910402602001604051908101604052809291908181526020018280546102a890610974565b80156102f55780601f106102ca576101008083540402835291602001916102f5565b820191906000526020600020905b8154815290600101906020018083116102d857829003601f168201915b5050505050905090565b60003361030d81858561046e565b60019150505b92915050565b600033610327858285610480565b6103328585856104ff565b506001949350505050565b336103506005546001600160a01b031690565b6001600160a01b0316148061037457503360009081526006602052604090205460ff165b6103be5760405162461bcd60e51b815260206004820152601660248201527521b0b63632b91034b9903737ba10309036b4b73a32b960511b60448201526064015b60405180910390fd5b6103c8828261055e565b5050565b6103d4610594565b6103de60006105c1565b565b60606004805461027c90610974565b60003361030d8185856104ff565b610405610594565b6001600160a01b03919091166000908152600660205260409020805460ff1916911515919091179055565b610438610594565b6001600160a01b03811661046257604051631e4fbdf760e01b8152600060048201526024016103b5565b61046b816105c1565b50565b61047b8383836001610613565b505050565b6001600160a01b038381166000908152600160209081526040808320938616835292905220546000198110156104f957818110156104ea57604051637dc7a0d960e11b81526001600160a01b038416600482015260248101829052604481018390526064016103b5565b6104f984848484036000610613565b50505050565b6001600160a01b03831661052957604051634b637e8f60e11b8152600060048201526024016103b5565b6001600160a01b0382166105535760405163ec442f0560e01b8152600060048201526024016103b5565b61047b8383836106e8565b6001600160a01b0382166105885760405163ec442f0560e01b8152600060048201526024016103b5565b6103c8600083836106e8565b6005546001600160a01b031633146103de5760405163118cdaa760e01b81523360048201526024016103b5565b600580546001600160a01b038381166001600160a01b0319831681179093556040519116919082907f8be0079c531659141344cd1fd0a4f28419497f9722a3daafe3b4186f6b6457e090600090a35050565b6001600160a01b03841661063d5760405163e602df0560e01b8152600060048201526024016103b5565b6001600160a01b03831661066757604051634a1406b160e11b8152600060048201526024016103b5565b6001600160a01b03808516600090815260016020908152604080832093871683529290522082905580156104f957826001600160a01b0316846001600160a01b03167f8c5be1e5ebec7d5bd14f71427d1e84f3dd0314c0f7b2291e5b200ac8c7c3b925846040516106da91815260200190565b60405180910390a350505050565b6001600160a01b03831661071357806002600082825461070891906109ae565b909155506107859050565b6001600160a01b038316600090815260208190526040902054818110156107665760405163391434e360e21b81526001600160a01b038516600482015260248101829052604481018390526064016103b5565b6001600160a01b03841660009081526020819052604090209082900390555b6001600160a01b0382166107a1576002805482900390556107c0565b6001600160a01b03821660009081526020819052604090208054820190555b816001600160a01b0316836001600160a01b03167fddf252ad1be2c89b69c2b068fc378daa952ba7f163c4a11628f55a4df523b3ef8360405161080591815260200190565b60405180910390a3505050565b602081526000825180602084015260005b818110156108405760208186018101516040868401015201610823565b506000604082850101526040601f19601f83011684010191505092915050565b80356001600160a01b038116811461087757600080fd5b919050565b6000806040838503121561088f57600080fd5b61089883610860565b946020939093013593505050565b6000806000606084860312156108bb57600080fd5b6108c484610860565b92506108d260208501610860565b929592945050506040919091013590565b6000602082840312156108f557600080fd5b6108fe82610860565b9392505050565b6000806040838503121561091857600080fd5b61092183610860565b91506020830135801515811461093657600080fd5b809150509250929050565b6000806040838503121561095457600080fd5b61095d83610860565b915061096b60208401610860565b90509250929050565b600181811c9082168061098857607f821691505b6020821081036109a857634e487b7160e01b600052602260045260246000fd5b50919050565b8082018082111561031357634e487b7160e01b600052601160045260246000fdfea264697066735822122067e7b2858b09a042e7914ff560e7be6e17f2888c78767bd143eb4b4076f5927664736f6c634300081c0033",
  "linkReferences": {},
  "deployedLinkReferences": {}
}