{
  "_format": "hh-sol-artifact-1",
  "contractName": "ShopCAPPlatform",
  "sourceName": "contracts/ShopCAPPlatform.sol",
  "abi": [
    {
      "inputs": [
        {
          "internalType": "address",
          "name": "_tokenAddress",
          "type": "address"
        },
        {
          "internalType": "address",
          "name": "_partnerRegistryAddress",
          "type": "address"
        },
        {
          "internalType": "address",
          "name": "_cashbackManagerAddress",
          "type": "address"
        }
      ],
      "stateMutability": "nonpayable",
      "type": "constructor"
    },
    {
      "inputs": [
        {
          "internalType": "address",
          "name": "owner",
          "type": "address"
        }
      ],
      "name": "OwnableInvalidOwner",
      "type": "error"
    },
    {
      "inputs": [
        {
          "internalType": "address",
          "name": "account",
          "type": "address"
        }
      ],
      "name": "OwnableUnauthorizedAccount",
      "type": "error"
    },
    {
      "inputs": [],
      "name": "ReentrancyGuardReentrantCall",
      "type": "error"
    },
    {
      "anonymous": false,
      "inputs": [
        {
          "indexed": true,
          "internalType": "address",
          "name": "previousOwner",
          "type": "address"
        },
        {
          "indexed": true,
          "internalType": "address",
          "name": "newOwner",
          "type": "address"
        }
      ],
      "name": "OwnershipTransferred",
      "type": "event"
    },
    {
      "anonymous": false,
      "inputs": [
        {
          "indexed": true,
          "internalType": "uint256",
          "name": "itemId",
          "type": "uint256"
        },
        {
          "indexed": false,
          "internalType": "string",
          "name": "name",
          "type": "string"
        },
        {
          "indexed": false,
          "internalType": "uint256",
          "name": "price",
          "type": "uint256"
        },
        {
          "indexed": false,
          "internalType": "uint256",
          "name": "partnerId",
          "type": "uint256"
        }
      ],
      "name": "PlatformItemAdded",
      "type": "event"
    },
    {
      "anonymous": false,
      "inputs": [
        {
          "indexed": true,
          "internalType": "uint256",
          "name": "itemId",
          "type": "uint256"
        },
        {
          "indexed": true,
          "internalType": "address",
          "name": "buyer",
          "type": "address"
        },
        {
          "indexed": false,
          "internalType": "uint256",
          "name": "price",
          "type": "uint256"
        },
        {
          "indexed": false,
          "internalType": "uint256",
          "name": "tokensIssued",
          "type": "uint256"
        }
      ],
      "name": "PlatformItemPurchased",
      "type": "event"
    },
    {
      "anonymous": false,
      "inputs": [
        {
          "indexed": true,
          "internalType": "uint256",
          "name": "partnerId",
          "type": "uint256"
        },
        {
          "indexed": false,
          "internalType": "string",
          "name": "name",
          "type": "string"
        },
        {
          "indexed": false,
          "internalType": "address",
          "name": "partnerWallet",
          "type": "address"
        }
      ],
      "name": "PlatformPartnerAdded",
      "type": "event"
    },
    {
      "inputs": [],
      "name": "TOKENS_PER_ETH",
      "outputs": [
        {
          "internalType": "uint256",
          "name": "",
          "type": "uint256"
        }
      ],
      "stateMutability": "view",
      "type": "function"
    },
    {
      "inputs": [
        {
          "internalType": "string",
          "name": "_name",
          "type": "string"
        },
        {
          "internalType": "string",
          "name": "_desc",
          "type": "string"
        },
        {
          "internalType": "string",
          "name": "_link",
          "type": "string"
        },
        {
          "internalType": "address",
          "name": "_wallet",
          "type": "address"
        }
      ],
      "name": "addPartner",
      "outputs": [
        {
          "internalType": "uint256",
          "name": "",
          "type": "uint256"
        }
      ],
      "stateMutability": "nonpayable",
      "type": "function"
    },
    {
      "inputs": [
        {
          "internalType": "uint256",
          "name": "_itemId",
          "type": "uint256"
        }
      ],
      "name": "buyItem",
      "outputs": [],
      "stateMutability": "payable",
      "type": "function"
    },
    {
      "inputs": [],
      "name": "cashbackManager",
      "outputs": [
        {
          "internalType": "contract CashbackManager",
          "name": "",
          "type": "address"
        }
      ],
      "stateMutability": "view",
      "type": "function"
    },
    {
      "inputs": [],
      "name": "getAllItems",
      "outputs": [
        {
          "components": [
            {
              "internalType": "uint256",
              "name": "id",
              "type": "uint256"
            },
            {
              "internalType": "string",
              "name": "name",
              "type": "string"
            },
            {
              "internalType": "uint256",
              "name": "price",
              "type": "uint256"
            },
            {
              "internalType": "uint256",
              "name": "stock",
              "type": "uint256"
            },
            {
              "internalType": "uint256",
              "name": "partnerId",
              "type": "uint256"
            },
            {
              "internalType": "bool",
              "name": "isActive",
              "type": "bool"
            }
          ],
          "internalType": "struct ShopCAPPlatform.Item[]",
          "name": "",
          "type": "tuple[]"
        }
      ],
      "stateMutability": "view",
      "type": "function"
    },
    {
      "inputs": [
        {
          "internalType": "uint256",
          "name": "",
          "type": "uint256"
        }
      ],
      "name": "items",
      "outputs": [
        {
          "internalType": "uint256",
          "name": "id",
          "type": "uint256"
        },
        {
          "internalType": "string",
          "name": "name",
          "type": "string"
        },
        {
          "internalType": "uint256",
          "name": "price",
          "type": "uint256"
        },
        {
          "internalType": "uint256",
          "name": "stock",
          "type": "uint256"
        },
        {
          "internalType": "uint256",
          "name": "partnerId",
          "type": "uint256"
        },
        {
          "internalType": "bool",
          "name": "isActive",
          "type": "bool"
        }
      ],
      "stateMutability": "view",
      "type": "function"
    },
    {
      "inputs": [
        {
          "internalType": "string",
          "name": "_name",
          "type": "string"
        },
        {
          "internalType": "uint256",
          "name": "_price",
          "type": "uint256"
        },
        {
          "internalType": "uint256",
          "name": "_stock",
          "type": "uint256"
        },
        {
          "internalType": "uint256",
          "name": "_partnerId",
          "type": "uint256"
        }
      ],
      "name": "listItem",
      "outputs": [],
      "stateMutability": "nonpayable",
      "type": "function"
    },
    {
      "inputs": [],
      "name": "nextItemId",
      "outputs": [
        {
          "internalType": "uint256",
          "name": "",
          "type": "uint256"
        }
      ],
      "stateMutability": "view",
      "type": "function"
    },
    {
      "inputs": [],
      "name": "owner",
      "outputs": [
        {
          "internalType": "address",
          "name": "",
          "type": "address"
        }
      ],
      "stateMutability": "view",
      "type": "function"
    },
    {
      "inputs": [],
      "name": "partnerRegistry",
      "outputs": [
        {
          "internalType": "contract PartnerRegistry",
          "name": "",
          "type": "address"
        }
      ],
      "stateMutability": "view",
      "type": "function"
    },
    {
      "inputs": [],
      "name": "renounceOwnership",
      "outputs": [],
      "stateMutability": "nonpayable",
      "type": "function"
    },
    {
      "inputs": [],
      "name": "token",
      "outputs": [
        {
          "internalType": "contract ShopCAPToken",
          "name": "",
          "type": "address"
        }
      ],
      "stateMutability": "view",
      "type": "function"
    },
    {
      "inputs": [
        {
          "internalType": "address",
          "name": "newOwner",
          "type": "address"
        }
      ],
      "name": "transferOwnership",
      "outputs": [],
      "stateMutability": "nonpayable",
      "type": "function"
    },
    {
      "inputs": [],
      "name": "withdraw",
      "outputs": [],
      "stateMutability": "nonpayable",
      "type": "function"
    }
  ],
  "bytecode": "0x60e060405234801561001057600080fd5b5060405161140438038061140483398101604081905261002f91610138565b338061005657604051631e4fbdf760e01b8152600060048201526024015b60405180910390fd5b61005f816100cc565b50600180556001600160a01b0383166100af5760405162461bcd60e51b8152602060048201526012602482015271546f6b656e2061646472657373207a65726f60701b604482015260640161004d565b6001600160a01b0392831660c0529082166080521660a05261017b565b600080546001600160a01b038381166001600160a01b0319831681178455604051919092169283917f8be0079c531659141344cd1fd0a4f28419497f9722a3daafe3b4186f6b6457e09190a35050565b80516001600160a01b038116811461013357600080fd5b919050565b60008060006060848603121561014d57600080fd5b6101568461011c565b92506101646020850161011c565b91506101726040850161011c565b90509250925092565b60805160a05160c05161123e6101c6600039600081816102c401526108c60152600081816101490152610952015260008181610195015281816102eb0152610a18015261123e6000f3fe6080604052600436106100dd5760003560e01c8063715018a61161007f578063bfb231d211610059578063bfb231d21461024d578063e7fb74c71461027f578063f2fde38b14610292578063fc0c546a146102b257600080fd5b8063715018a6146102045780638da5cb5b14610219578063bc6e66041461023757600080fd5b806338712e80116100bb57806338712e80146101835780633ccfd60b146101b75780634ba1d6aa146101cc5780636a868974146101ee57600080fd5b80630df44900146100e2578063161d44411461011557806321f8fba714610137575b600080fd5b3480156100ee57600080fd5b506101026100fd366004610cfe565b6102e6565b6040519081526020015b60405180910390f35b34801561012157600080fd5b50610135610130366004610da5565b6103c3565b005b34801561014357600080fd5b5061016b7f000000000000000000000000000000000000000000000000000000000000000081565b6040516001600160a01b03909116815260200161010c565b34801561018f57600080fd5b5061016b7f000000000000000000000000000000000000000000000000000000000000000081565b3480156101c357600080fd5b506101356104b8565b3480156101d857600080fd5b506101e16104fd565b60405161010c9190610e3f565b3480156101fa57600080fd5b5061010260025481565b34801561021057600080fd5b506101356106bf565b34801561022557600080fd5b506000546001600160a01b031661016b565b34801561024357600080fd5b5061010261271081565b34801561025957600080fd5b5061026d610268366004610ee5565b6106d3565b60405161010c96959493929190610efe565b61013561028d366004610ee5565b610794565b34801561029e57600080fd5b506101356102ad366004610f3e565b610b62565b3480156102be57600080fd5b5061016b7f000000000000000000000000000000000000000000000000000000000000000081565b6000807f00000000000000000000000000000000000000000000000000000000000000006001600160a01b0316630df44900878787876040518563ffffffff1660e01b815260040161033b9493929190610f62565b6020604051808303816000875af115801561035a573d6000803e3d6000fd5b505050506040513d601f19601f8201168201806040525081019061037e9190610fb5565b9050807f253bcec65d9ae7d35325ec63fd8ccaed8bef48037061e1368d664dd09921230187856040516103b2929190610fce565b60405180910390a295945050505050565b600280549060006103d38361100e565b90915550506040805160c08101825260025480825260208083018881528385018890526060840187905260808401869052600160a0850181905260009384526003909252939091208251815592519192919082019061043290826110aa565b5060408201518160020155606082015181600301556080820151816004015560a08201518160050160006101000a81548160ff0219169083151502179055509050506002547f5e4f7719cfbb1d492fb32767dacbecd939fb42ed98280032f52cceee76136c1f8585846040516104aa93929190611169565b60405180910390a250505050565b6104c0610b9d565b600080546040516001600160a01b03909116914780156108fc02929091818181858888f193505050501580156104fa573d6000803e3d6000fd5b50565b6060600060025467ffffffffffffffff81111561051c5761051c610c44565b60405190808252806020026020018201604052801561058857816020015b6105756040518060c0016040528060008152602001606081526020016000815260200160008152602001600081526020016000151581525090565b81526020019060019003908161053a5790505b50905060015b60025481116106b957600360008281526020019081526020016000206040518060c0016040529081600082015481526020016001820180546105cf90611027565b80601f01602080910402602001604051908101604052809291908181526020018280546105fb90611027565b80156106485780601f1061061d57610100808354040283529160200191610648565b820191906000526020600020905b81548152906001019060200180831161062b57829003601f168201915b505050918352505060028201546020820152600382015460408201526004820154606082015260059091015460ff1615156080909101528261068b60018461118e565b8151811061069b5761069b6111a7565b602002602001018190525080806106b19061100e565b91505061058e565b50919050565b6106c7610b9d565b6106d16000610bca565b565b600360205260009081526040902080546001820180549192916106f590611027565b80601f016020809104026020016040519081016040528092919081815260200182805461072190611027565b801561076e5780601f106107435761010080835404028352916020019161076e565b820191906000526020600020905b81548152906001019060200180831161075157829003601f168201915b505050506002830154600384015460048501546005909501549394919390925060ff1686565b61079c610c1a565b6000818152600360205260409020600581015460ff166107f55760405162461bcd60e51b815260206004820152600f60248201526e4974656d206e6f742061637469766560881b60448201526064015b60405180910390fd5b60008160030154116108385760405162461bcd60e51b815260206004820152600c60248201526b4f7574206f662073746f636b60a01b60448201526064016107ec565b80600201543410156108815760405162461bcd60e51b8152602060048201526012602482015271496e73756666696369656e742066756e647360701b60448201526064016107ec565b600381018054906000610893836111bd565b90915550600090506108a7612710346111d4565b6040516340c10f1960e01b8152336004820152602481018290529091507f00000000000000000000000000000000000000000000000000000000000000006001600160a01b0316906340c10f1990604401600060405180830381600087803b15801561091257600080fd5b505af1158015610926573d6000803e3d6000fd5b50505050600482810154604051632a6b69b960e01b8152339281019290925234602483015260448201527f00000000000000000000000000000000000000000000000000000000000000006001600160a01b031690632a6b69b990606401600060405180830381600087803b15801561099e57600080fd5b505af19250505080156109af575060015b5081600401546000036109fc57600080546040516001600160a01b03909116913480156108fc02929091818181858888f193505050501580156109f6573d6000803e3d6000fd5b50610b15565b60048281015460405163158008b160e01b8152918201526000907f00000000000000000000000000000000000000000000000000000000000000006001600160a01b03169063158008b190602401602060405180830381865afa158015610a67573d6000803e3d6000fd5b505050506040513d601f19601f82011682018060405250810190610a8b91906111eb565b90506001600160a01b03811615610ad7576040516001600160a01b038216903480156108fc02916000818181858888f19350505050158015610ad1573d6000803e3d6000fd5b50610b13565b600080546040516001600160a01b03909116913480156108fc02929091818181858888f19350505050158015610b11573d6000803e3d6000fd5b505b505b60028201546040805191825260208201839052339185917f02918d56ccb6b0b8bf208a5bbc445ebb2bca0c8f2ecb90ccd019cdb1017cd5c8910160405180910390a350506104fa60018055565b610b6a610b9d565b6001600160a01b038116610b9457604051631e4fbdf760e01b8152600060048201526024016107ec565b6104fa81610bca565b6000546001600160a01b031633146106d15760405163118cdaa760e01b81523360048201526024016107ec565b600080546001600160a01b038381166001600160a01b0319831681178455604051919092169283917f8be0079c531659141344cd1fd0a4f28419497f9722a3daafe3b4186f6b6457e09190a35050565b600260015403610c3d57604051633ee5aeb560e01b815260040160405180910390fd5b6002600155565b634e487b7160e01b600052604160045260246000fd5b600082601f830112610c6b57600080fd5b813567ffffffffffffffff811115610c8557610c85610c44565b604051601f8201601f19908116603f0116810167ffffffffffffffff81118282101715610cb457610cb4610c44565b604052818152838201602001851015610ccc57600080fd5b816020850160208301376000918101602001919091529392505050565b6001600160a01b03811681146104fa57600080fd5b60008060008060808587031215610d1457600080fd5b843567ffffffffffffffff811115610d2b57600080fd5b610d3787828801610c5a565b945050602085013567ffffffffffffffff811115610d5457600080fd5b610d6087828801610c5a565b935050604085013567ffffffffffffffff811115610d7d57600080fd5b610d8987828801610c5a565b9250506060850135610d9a81610ce9565b939692955090935050565b60008060008060808587031215610dbb57600080fd5b843567ffffffffffffffff811115610dd257600080fd5b610dde87828801610c5a565b97602087013597506040870135966060013595509350505050565b6000815180845260005b81811015610e1f57602081850181015186830182015201610e03565b506000602082860101526020601f19601f83011685010191505092915050565b6000602082016020835280845180835260408501915060408160051b86010192506020860160005b82811015610ed957603f19878603018452815180518652602081015160c06020880152610e9760c0880182610df9565b60408381015190890152606080840151908901526080808401519089015260a09283015115159290970191909152506020938401939190910190600101610e67565b50929695505050505050565b600060208284031215610ef757600080fd5b5035919050565b86815260c060208201526000610f1760c0830188610df9565b905085604083015284606083015283608083015282151560a0830152979650505050505050565b600060208284031215610f5057600080fd5b8135610f5b81610ce9565b9392505050565b608081526000610f756080830187610df9565b8281036020840152610f878187610df9565b90508281036040840152610f9b8186610df9565b91505060018060a01b038316606083015295945050505050565b600060208284031215610fc757600080fd5b5051919050565b604081526000610fe16040830185610df9565b905060018060a01b03831660208301529392505050565b634e487b7160e01b600052601160045260246000fd5b60006001820161102057611020610ff8565b5060010190565b600181811c9082168061103b57607f821691505b6020821081036106b957634e487b7160e01b600052602260045260246000fd5b601f8211156110a557806000526020600020601f840160051c810160208510156110825750805b601f840160051c820191505b818110156110a2576000815560010161108e565b50505b505050565b815167ffffffffffffffff8111156110c4576110c4610c44565b6110d8816110d28454611027565b8461105b565b6020601f82116001811461110c57600083156110f45750848201515b600019600385901b1c1916600184901b1784556110a2565b600084815260208120601f198516915b8281101561113c578785015182556020948501946001909201910161111c565b508482101561115a5786840151600019600387901b60f8161c191681555b50505050600190811b01905550565b60608152600061117c6060830186610df9565b60208301949094525060400152919050565b818103818111156111a1576111a1610ff8565b92915050565b634e487b7160e01b600052603260045260246000fd5b6000816111cc576111cc610ff8565b506000190190565b80820281158282048414176111a1576111a1610ff8565b6000602082840312156111fd57600080fd5b8151610f5b81610ce956fea2646970667358221220c4105ffe2d699b1cf9dfe26146738a1d681d1c6bbd63414a06c479595f70d8d064736f6c634300081c0033",
  "linkReferences": {},
  "deployedLinkReferences": {}
}